:020000040000fa
:080000000001040000000000f3
:020000040000fa
:100008003405000034050000340500003405000004
:1000180034050000340500003405000034050000f4
:10002800340500003405000034050000ec01000030
:1000380034050000340500002602000034050000e5
:1000480034050000cc01000034050000a8010000c0
:1000580034050000340500003405000034050000b4
:1000680034050000340500003405000034050000a4
:100078003405000034050000340500003405000094
:100088003405000034050000340500003405000084
:100098003405000034050000340500003405000074
:1000a8003405000034050000340500003405000064
:1000b8003405000034050000340500003405000054
:1000c8003405000034050000340500003405000044
:1000d8003405000034050000340500003405000034
:1000e8003405000034050000340500003405000024
:0800f80034050000340500008e
:020000040000fa
:100108003405000034050000340500003405000003
:1001180034050000340500003405000034050000f3
:10012800340500003405000034050000ec0100002f
:1001380034050000340500002602000034050000e4
:1001480034050000cc01000034050000a8010000bf
:1001580034050000340500003405000034050000b3
:1001680034050000340500003405000034050000a3
:100178003405000034050000340500003405000093
:100188003405000034050000340500003405000083
:100198003405000034050000340500003405000073
:1001a8003405000034050000340500003405000063
:1001b8003405000034050000340500003405000053
:1001c8003405000034050000340500003405000043
:1001d8003405000034050000340500003405000033
:1001e8003405000034050000340500003405000023
:0801f80034050000340500008d
:020000040000fa
:100200000f8520000eff20000e0188000000000076
:1002100000012000200288000c000700c09c200084
:100220000100200011000700000020000000e00095
:10023000020032000000020000000000460302003d
:10024000000000000040da000000fe004440a90069
:10025000c00720000000e000030032000000200082
:10026000a00188004440a800000006009101880019
:10027000800078000000eb0015003700e2804000ad
:1002800032a0b4009101ba00e280400032a0b40074
:100290009102ba00e280400032a0b4000002eb00fc
:1002a000472bde00f507b200602ce10004003a00a5
:1002b0000059eb008301e900fdff3e000400370018
:1002c0006128e100010032000082eb000400070019
:1002d0001101ba000200e000e8ff3a000000060049
:1002e0003159ba008301e9000c0032002159ba00eb
:1002f0008301e900080032000400e00003003a0036
:10030000e280400032a0b400f5ff370011d9ba00f6
:100310008301e900faff3a008100e800e180400033
:1003200032a0b40000000600000000000000000041
:1003300000000000000000000000000000000000bd
:1003400000000000000000000000000000000000ad
:10035000841f78003400f80004002000a401880005
:100360000000fa00041480009440880014148000f7
:10037000a440880024148000b44088003414800015
:10038000c44088008560a9000080fa003400f900ac
:100390004f02780000400600801f7800841f78001c
:1003a0003400f80000002000a00188000000fa00de
:1003b0008520a90094108000044278000440780051
:1003c0000ae8b7000080fa003400f9004f02780014
:1003d0004f007800004006003600f800809fbe0005
:1003e000849fbe003400f80000002000a0018800b7
:1003f0000000fa000002eb0004088800e4408000de
:100400000402e800e4408800e54080004406200043
:10041000110009008482d80001027800e00f520028
:1004200003003a00f44080000402e800f440880031
:100430008460a9000080fa003400f9004f02be0079
:100440004f00be003600f90000400600841f78000f
:100450003400f80004002000a40188000000fa0025
:100460000002eb003408880084c0a9000080fa0074
:100470003400f9004f027800004006000200fa0044
:1004800002003700e4108000044f7800c4108000a0
:1004900061026200e00f5200faff3a000080fa00a9
:1004a000000006000000fa00d302a900c602a8005e
:1004b000c622a800c642a800c662a800a802a900d9
:1004c000a822a900a842a900a862a900c682a90082
:1004d000c6a2a800c742a900c722a800a922a80056
:1004e000a942a800a882a800a8a2a800de02a9002c
:1004f000de22a900de42a900de62a900d222a90004
:10050000d242a9000080fa00000006000000fa00b4
:10051000349c20006408880044012000040c8800fa
:10052000843e2000140c880064ff2d00240c8800f9
:1005300044012000640c8800843e2000740c880074
:1005400064ff2d00840c880011e1a8000080fa00ef
:10055000000006000200fa00000f78000002eb0025
:10056000e4408800000000009e027800e440800023
:10057000848f5200fcff3e000080fa00000006005d
:100580000200fa00000f78000002eb00f44088003f
:10059000000000009e027800f4408000848f52002a
:1005a000fcff3e000080fa00000006000200fa0096
:1005b000000f7800a17128001e00780016020700c5
:1005c00000027800e00f520003003a0014002000ff
:1005d000c441880008003700017228001e0078001e
:1005e0000d02070000027800e00f520002003a00fe
:1005f00014002000d44188000080fa0000000600aa
:100600000200fa00c410800061026200e00f520094
:100610001c003200e4108000044f78001e42780075
:10062000ea4f5200030032001e427800ed4f5200a4
:100630000a003a0085418000248320008482420021
:100640000042eb00844a780020832000d7ff070097
:100650000002eb00844188000a00370084418000da
:10066000e40f520007003c008541800024832000f5
:10067000048242001e4a7800844180000402e8009f
:10068000844188000080fa00000006000000fa00a3
:1006900084ff070007030700990207005c030700b7
:1006a0009aff0700a1e2a800e45120000400010025
:1006b00005003700000000000300370000000000c4
:1006c0000100370000000000944080000400780022
:1006d000430307000002780014418800a440800012
:1006e000040078003e0307000002780024418800df
:1006f000b44080000400780039030700000278004d
:1007000034418800c44080000400780034030700ae
:100710000002780044418800b9ff0700710007001b
:100720000002be000400be00d10007000002be00af
:100730000402780054428800380007000002be001e
:100740000400be00ca0007000002be0004027800d8
:100750004442880014418000e10f52000a003a0030
:100760005072280086020700644c2000040001003b
:1007700044428000e80f5200ceff3c00e4512000cc
:1007800004000100d0ff370024418000e10f520037
:1007900009003a003074280079020700c44d200097
:1007a00004000100401f200075ff0700e4512000f5
:1007b00004000100c4ff370034418000e10f520003
:1007c00009003a00f07528006d020700244f200050
:1007d00004000100401f200069ff0700e4512000d1
:1007e00004000100b8ff370044418000e10f5200cf
:1007f000b2ff3a00a0772800610207008450200071
:100800000400010054428000e80f5200adff3c009c
:10081000e451200004000100abff37000600fa009d
:100820000002eb00040f78006022b8001407980063
:10083000250798000002eb0064428800cb42a80024
:100840005000200043ff0700cb42a9000000000039
:10085000451680000420200004826200e00f520050
:10086000fbff3200090037001e0fe80010002000d7
:1008700038ff0700441f20009e027800848f52003a
:1008800002003a00140020006442880045168000ef
:100890000420200004826200e00f5200f2ff3a00c0
:1008a0001e027800cfa2de000400be009100070007
:1008b0000002be00b2472100e3e223000400be00b4
:1008c000a40007000002be00140798002507980046
:1008d0001e029000ae0290000400be000080fa00ec
:1008e000000006000600fa000002eb00040f78008a
:1008f0006022b8001407980025079800ca82a80053
:100900005000200013ff0700ca82a9000000000069
:10091000451680000402200004826200e00f5200ad
:10092000fbff3200030037001e0fe800100020001c
:1009300008ff0700451680000402200004826200c0
:10094000e00f5200f8ff3a001e027800cfa2de004e
:100950000400be00670007000002be00b24721008d
:10096000e3e223000400be007a0007000002be009c
:1009700014079800250798001e029000ae02900010
:100980000400be000080fa00000006000000fa002b
:1009900084702000040c880084702000640c88009f
:1009a000e202a900e222a800e242a800e262a90055
:1009b0000080fa00000006000000fa0084702000a9
:1009c000040c880084702000640c8800e202a900f6
:1009d000e222a800e242a900e262a8000080fa0038
:1009e000000006000000fa0084702000040c88005b
:1009f00084702000640c8800e202a800e222a900b2
:100a0000e242a800e262a9000080fa0000000600ad
:100a10000000fa0084702000040c8800847020001c
:100a2000640c8800e202a800e222a900e242a900c8
:100a3000e262a8000080fa00000006000000fa0050
:100a40000002eb00040c88000002eb00640c88003c
:100a5000e202a900e222a900e242a900e262a900a2
:100a60000080fa00000006000040da000000fe00ee
:100a70000001be00220007000470a70003f0a100df
:100a80006509b100160032000d0035006828e1004c
:100a900006003500f0ff2f00f1ff27000300e00003
:100aa00013003b000100280000000500000040008a
:100ab000818048008502e900fcff3a000800370009
:100ac000f88f420002003c008000eb0000000500af
:100ad0008100d1000080d3008502e800fcff3a00cd
:100ae0000300e00002003b0060001000e0801800fe
:100af000000006004f89de008201780049003700bf
:100b0000c70ade00f107b200f50fb200080032009c
:100b1000e1cf4200020032000170a0002400050075
:100b2000810f700001003200040805004400050038
:100b3000810f700002003a00140005008502e900f0
:100b40000000400081c04800fcff3b000170a00095
:100b500024000500889fbe008a9fbe008c1f78007d
:100b6000950007009c00330003866c006450e10090
:100b7000240032006420e100270032006150e100cf
:100b8000220032006120e100210032008b8542000a
:100b9000eb07b1000134b800003ab8000804420085
:100ba00089844a00013ab8000030b80088804000cb
:100bb00009014a0004003300000040008180480021
:100bc000020149008b05e900c909dd0083017000bd
:100bd0000100320013002000c814de004814dd00bc
:100be0004709de001200b200c808de000884700069
:100bf0004b00070001f0a1000cf0a70001f0a000dd
:100c00007e0037006120e100800032000801be0054
:100c10000200be00f7ff37006150e100fcff3a0020
:100c20007a003700881f7800030478000300e00092
:100c300007003d0060001000e0801800600119000e
:100c4000e081190002003b0001f02d000300370095
:100c50000400070008f0a70001f0a0004f0478008e
:100c600000000600889fbe008a9fbe0000827000c0
:100c70000402710004827100260032000004be00ec
:100c80000200be006011b8006b0920009502200030
:100c90000182cf000a0039000541b1000082cf0077
:100ca000070039000541b1000982cf000400390076
:100cb0000541b1000882cf00010039000541b100b3
:100cc00005425200120032000a003b00828171008e
:100cd000610164008100d1000080d3008984d300c9
:100ce0000884d3008b05e8000442e800f7ff3a00cf
:100cf000070037000804440089844c0000004800c5
:100d0000818048008b05e9000442e900f9ff3a00c0
:100d1000030007004f05be004f04be0000000600a0
:100d200081002000618055000b003d000b00200079
:100d300061fe2f000100e1001d003400828171007e
:100d4000610164008904d1000884d3000000e80038
:100d5000faff3a0071002000610064000300700097
:100d6000020060000900320061044400e0844c008d
:100d70000988a500050032008b05e8006808e1003d
:100d800002003a008904d1000884d300f20f200049
:100d90000258e10005003d00c75ddd00f907b20023
:100da0008980750008007800000006000bf8270015
:100db0008b007800000005000004be0050ff070013
:100dc0000003be000405be000200be004cff070089
:100dd000844f7500000006000200be006450e10070
:100de000050036006420e100020036000968a30017
:100df00001003a000800be000160a0004f06780024
:100e00004f05be004f04be0000000600f0ff2f009b
:100e1000f1ff2700f9ff3700b042780031c25200dd
:100e200002003a00e0cf5200fbff3a000400fb0052
:040e300000000600b8
:020000040000fa
:100e34005354000041520000540000005354000079
:100e44004f500000002d00002d2d00002d2d00001e
:100e54002d4b000072650000746100006e6a000092
:100e6400652000006e61000070720000696a000075
:100e7400656400002d2d00002d2d00002d2d000097
:100e8400002d00002d2d00002d2d00002d4b000005
:100e940072650000746100006e6a00006520000045
:100ea4006c6900006a650000766f00002d2d00005b
:100eb4002d2d00002d2d0000002d00002d2d0000f3
:100ec4002d2d00002d4b00007265000074610000a0
:100ed4006e6a00006520000064650000736e000007
:100ee4006f2d00002d2d00002d2d00002d00000081
:100ef4002d2d00002d2d00002d2d00004b72000023
:100f040065740000616e00006a650000206e0000d8
:100f1400617a0000616400002d2d00002d2d000079
:080f24002d2d0000000000006b
:020000040000fa
:100f2c000000fa00f4022000a41088000d42a80072
:100f3c008d20a80075108000c4ff2f000482620071
:100f4c00741088000de2a8000f42a8000080fa007f
:100f5c00000006000200fa00000f780000000000fc
:100f6c00751080000410200004826200e00f520013
:100f7c00fbff32006410800066026200e60f520034
:100f8c0003003a001e02780084108800030037002a
:100f9c00f40f20001e026200841088000080fa000a
:100fac00000006000400fa00100798009e02900052
:100fbc00843e2000110009008482d80000027800d1
:100fcc00044f78009e4278000582fb000403b000b9
:100fdc0004007800dfff07001e4078008082fb00d1
:100fec0084c12f0004aab900040278009e0290006c
:100ffc0004824200140798009e02900044062000d0
:10100c00110009008482d80000027800044f780097
:10101c009e4278000582fb000403b00004007800b7
:10102c00ccff07001e4078008082fb00c4f92f0023
:10103c0004aab900040278009e02900004824200c7
:10104c00140798009e029000a400200011000900d3
:10105c008482d80000027800044f78009e42780009
:10106c000582fb000403b00004007800b9ff070000
:10107c001e4078008082fb0064ff2f0004aab90098
:10108c00040278009e02900004824200140798002b
:10109c001e0290000403b00004007800adff0700ae
:1010ac00d0002000abff07000080fa000000060013
:1010bc000000fa00881f7800000478000500370053
:1010cc00184278000402fb0004007800a1ff07001e
:1010dc000804e80018427800e04f5200f8ff3a008c
:1010ec00d00020009bff07004f0478000080fa001e
:1010fc00000006000000fa00f4022000f410880042
:10110c008f00a800c5108000c4ff2f00048262006d
:10111c00c410880017e2a8001942a8000080fa0049
:10112c00000006000200fa00000f7800000000002a
:10113c00c51080000410200004826200e00f5200f1
:10114c00fbff3200b410800066026200e60f520012
:10115c0003003a001e027800d41088000300370008
:10116c00f40f20001e026200d41088000080fa00e8
:10117c00000006000000fa00881f780000047800c8
:10118c0005003700184278000402fb0004007800c8
:10119c00e4ff07000804e80018427800e04f520012
:1011ac00f8ff3a00d0002000deff07004f04780063
:1011bc000080fa00000006000000fa008cc0a900b4
:1011cc0011e1a90084c0a9000080fa00000006000b
:1011dc000200fa00000f780084c0a9001e027800fb
:1011ec000442780067426200674262006742620014
:1011fc000482fb00670262004822dd00b604800016
:10120c00f58f2f008502630004827200b4048800fd
:10121c009e027800688262004322de00044278005d
:10122c00614262000482fb00610262004622dd0022
:10123c0066048000f5fb2f008502630004827200b7
:10124c00640488000080fa00000006000400fa0024
:10125c00000f7800110798000002eb00340888009a
:10126c001e029000640888001e0278008408880022
:10127c001061a9000080fa00000006000000fa00ce
:10128c0034088000040078000080fa00000006009a
:10129c000200fa00000f78001e0278003408880063
:1012ac000080fa00000006000000fa00a1a2a900cc
:1012bc00041580000480a1000490a100041588008e
:1012cc00041580000450a0000460a0000470a0006d
:1012dc0004158800a022a8001415800004d0a000da
:1012ec0004e0a00004f0a00014158800a342a8009c
:1012fc00141580000420a0000430a0000440a100bc
:10130c000450a10014158800a222a900a202a90071
:10131c002515800004f02100048272002415880039
:10132c00a4e2a8002515800004fc2f0004826200b2
:10133c00f401b30024158800a782a900a682a90095
:10134c00341580000400a1000410a1000420a100a9
:10135c000430a10034158800341580000480a100ed
:10136c000490a10004a0a10004b0a10034158800d1
:10137c00f400200054158800a042a8008560a80045
:0c138c008d60a8000080fa000000060040
:020000040000fa
:1013980000080000380000000000000038080000c5
:1013a8001600000002000000000000000053540076
:1013b80041525400005354004f50000000000000f8
:1013c80000000000000000004e08000002000000bd
:0813d80000000000000000000d
:020000040000fa
:1013e0000200fa00000f780094f020009e027800be
:1013f000848f520002003c000002eb000100370025
:1014000014002000040078000080fa0000000600ac
:101410000000fa000002eb000408880044062000e7
:10142000140888000421a9008460a9008c60a80029
:0c14300005e1a8000080fa0000000600a2
:020000040000fa
:0200000401f009
:04000000e1bf00005c
:020000040000fa
:0200000401f009
:04000400ff7f00007a
:00000001FF
